:020000040800F2
:10000000203B002029020008252B0008C1260008FB
:10001000052B00089F070008FD33000800000000C2
:100020000000000000000000000000009101000836
:10003000FB07000800000000D5010008212C000883
:10004000430200084302000843020008430200087C
:10005000430200084302000843020008430200086C
:10006000430200084302000843020008A1070008F9
:10007000AD070008B9070008C507000843020008DB
:10008000430200084302000843020008430200083C
:10009000430200084302000843020008430200082C
:1000A00043020008AD2C0008430200084302000888
:1000B000B92C00084302000843020008430200086C
:1000C00043020008430200084302000843020008FC
:1000D000430200084302000843020008F13300080D
:1000E00043020008430200084302000800F002F83F
:1000F00000F03FF80AA090E8000C82448344AAF183
:100100000107DA4501D100F034F8AFF2090EBAE880
:100110000F0013F0010F18BFFB1A43F0010318473B
:100120005CB500007CB50000103A24BF78C878C1E7
:10013000FAD8520724BF30C830C144BF04680C60ED
:10014000704700000023002400250026103A28BF35
:1001500078C1FBD8520728BF30C148BF0B60704739
:10016000642900F0CF80002070471FB51FBD10B577
:1001700010BD00F0DFFA1146FFF7F7FF03F0AEFB0A
:1001800000F0FDFA03B4FFF7F2FF03BC00F000FB40
:10019000224B19680868B0E8F00F80F30988BFF3B4
:1001A0006F8F4FF0000080F311884EF00D0E7047F6
:1001B0000000000006480068006880F3088862B606
:1001C00061B6BFF34F8FBFF36F8F00DF00BF00BF7B
:1001D00008ED00E0EFF30980BFF36F8F0F4B1A6853
:1001E00020E9F00F106008B54FF0500080F311883F
:1001F000BFF34F8FBFF36F8F05F084F84FF000000F
:1002000080F31188BDE8084019680868B0E8F00F6D
:1002100080F30988BFF36F8F704700BF2400002070
:10022000EFF3058070470000094880470948004700
:10023000FEE7FEE7FEE7FEE7FEE7FEE7FEE7FEE796
:10024000FEE7FEE704480549054A064B70470000F3
:10025000AB2C0008ED00000820230020203B0020EC
:10026000202B0020202B00200FB41CB50C0007AA67
:10027000009001D02044401E074B7B44694601900A
:10028000069800F0D0F9002C03D06946002000F059
:10029000DDF91CBC5DF814FBD90300002DE9F04129
:1002A0000E460446002020622046E168884730B3AD
:1002B000252805D0D4E901219047206A401CF2E7A7
:1002C000E168204600278847050018D0A5F14100C5
:1002D000192802D820354FF40067324629462046B7
:1002E0002760FFF73DFF40B1012804D0F61D26F03E
:1002F00007060836D8E7361DD6E72846DAE7206A2B
:10030000BDE8F0812DE9F04106460024106875290A
:10031000314616A510D0AFF30080002802DA404223
:1003200013A507E031688A0701D512A502E0490745
:1003300004D511A5012401E0AFF3008000210A22B9
:1003400006F1240709E0B0FBF2FCB0FBF2F302FB7C
:100350001C00303078541846491C0028F3D123463D
:100360002A463046BDE8F04100F0FEB8000000002B
:100370002D0000002B00000020000000032A40F2A6
:10038000308010F0030C00F0158011F8013BBCF137
:10039000020F624498BF11F801CB00F8013B38BF4F
:1003A00011F8013BA2F1040298BF00F801CB38BF5D
:1003B00000F8013B11F0030300F06780083AC0F039
:1003C000088051F8043B083A51F804CBA0E8081023
:1003D000F5E7121D5CBF51F8043B40F8043BAFF356
:1003E0000080D20724BF11F8013B11F801CB48BFB0
:1003F00011F8012B24BF00F8013B00F801CB48BFE6
:1004000000F8012B7047431A28BF9A427FF6B6AF17
:10041000032A1044114440F2268010F0030F1EBF3F
:1004200011F8013D521E00F8013D10F0030F7FF45A
:10043000F6AF11F0030300F02981083AC0F00B80F9
:1004400051F8043D083A51F804CD40F8043D40F815
:1004500004CDFFF7F3BF121D5CBF51F8043D40F817
:10046000043DAFF30080D20724BF11F8013D11F81D
:1004700001CD48BF11F8012C24BF00F8013D00F860
:1004800001CD48BF00F8012C704710B5203AC0F0EC
:100490000B80B1E81850203AA0E81850B1E8185085
:1004A000A0E81850BFF4F5AF5FEA027C24BFB1E8C2
:1004B0001850A0E8185044BF18C918C0BDE8104033
:1004C0005FEA827C24BF51F8043B40F8043B08BF3C
:1004D0007047D20728BF31F8023B48BF11F8012B03
:1004E00028BF20F8023B48BF00F8012B704702F0FC
:1004F000FF0343EA032242EA024200F0F3B84FF05E
:10050000000200B5134694469646203922BFA0E863
:100510000C50A0E80C50B1F12001BFF4F7AF09076F
:1005200028BFA0E80C5048BF0CC05DF804EB890060
:1005300028BF40F8042B08BF704748BF20F8022BA3
:1005400011F0804F18BF00F8012B704770477047BB
:10055000704710B500F0E6F8006810BD10B504460D
:1005600000F0E0F8046010BD2DE9F0470D46994613
:100570009246044600F124080168880604D5E06923
:1005800021F01001216000E00120A84201DD471B9D
:1005900000E00027A1697A1902EB0900081AA0619E
:1005A0002078C00602D42046AFF30080002608E081
:1005B000D4E901211AF806009047206A401C761CF5
:1005C00020624E45F4DB2078C0060AD52046AFF302
:1005D000008006E0D4E9012130209047206A401CC9
:1005E0002062381EA7F10107F4DC07E0D4E90121FD
:1005F00018F805009047206A401C2062281EA5F1CB
:100600000105F3DC2046AFF300802078000602D518
:100610000220BDE8F0870120FBE7000001694A1CC9
:1006200002610878704700B58FB0CDE90131002133
:10063000059105497944CDE9031011466846FFF755
:100640002DFE0FB000BD0000E5FFFFFF0A6802F8B5
:10065000010B0A607047D1E900239A4202D2531C71
:100660000B6010707047431A28BF9A427FF60DAF97
:10067000104410F0030F11441EBF11F8013D521E2B
:1006800000F8013D10F0030F7FF4F6AF103AC0F010
:100690000A8010B531E91850103A20E91850BFF41B
:1006A000F9AFBDE81040530724BF31E9081020E935
:1006B000081044BF51F8043D40F8043D12F0030F08
:1006C00008BF7047D20728BF31F8023D48BF11F874
:1006D000012C28BF20F8023D48BF00F8012C7047CC
:1006E0004FF000020429C0F0128010F0030C3FF418
:1006F00008AFCCF1040CBCF1020F18BF00F8012BBD
:10070000A8BF20F8022BA1EB0C01FFF7FABE5FEAAD
:10071000C17C24BF00F8012B00F8012B48BF00F872
:10072000012B704700487047BC22002000487047EA
:10073000BC2200207546FFF7F9FFAE46050069466A
:10074000534620F00700854618B020B5FFF77AFD24
:10075000BDE820404FF000064FF000074FF00008C2
:100760004FF0000B21F00701AC46ACE8C009ACE843
:10077000C009ACE8C009ACE8C0098D46704710B5A7
:100780000446AFF300802046BDE81040FFF7FABCF6
:1007900001491820ABBEFEE7260002007047FEE7C5
:1007A000014800F09DB80000DC030020014800F083
:1007B00097B80000F0040020014800F091B8000054
:1007C000AC040020014800F08BB800002004002099
:1007D00030B590F840500124AC40C56B6C600468A3
:1007E00063604368102B036803D099600068C2609F
:1007F00030BD9A600068C16030BD704772B6FEE7D8
:1008000010B590F821100022022905D0042181633F
:1008100080F82020012010BD01680B6823F00E0332
:100820000B6001680B6823F001030B6090F8403007
:10083000C46B012101FA03F3636080F8211080F892
:100840002020104610BD000010B590F821100024A3
:10085000022903D00421816301243DE001680A6874
:1008600022F00E020A6001680A6822F001020A60A2
:100870001A4A0168914201D1012121E0174A14323C
:10088000914201D110211BE0144A2832914201D13A
:10089000891515E0114A3C32914201D189140FE0CB
:1008A0000E4A5032914202D14FF4803108E00B4A97
:1008B0006432914202D14FF4801101E04FF0807117
:1008C000064A083A5160012180F82110002180F881
:1008D0002010416B01B18847204610BD080002403E
:1008E0002DE9F05FC16B0C6801680B68D0F840C05F
:1008F000042202FA0CF2494DDFF824A1494E4A4F76
:10090000DFF828B1DFF828E122422CD05A072AD597
:100910000A68920603D40A6822F004020A60016899
:10092000A94201D1042219E0514501D1402215E02C
:10093000B14202D14FF4806210E0B94202D14FF4CB
:1009400080420BE0594502D14FF4802206E0714508
:1009500002D14FF4800201E04FF080622F49083944
:100960004A60C16A3BE04FF0020808FA0CF818EA46
:10097000040F4FF000094FF0010235D05FEA837891
:1009800032D50B689B0605D40B6823F00A030B6075
:1009900080F821200168A94201D1022219E05145C5
:1009A00001D1202215E0B14202D14FF4007210E0D3
:1009B000B94202D14FF400520BE0594502D14FF435
:1009C000003206E0714502D14FF4001201E04FF011
:1009D0000072124908394A6080F82090816A002923
:1009E0001AD0BDE8F05F0847082505FA0CF5254246
:1009F00012D01B0710D50B6823F00E030B6090F884
:100A00004010C36B02FA01F15960826380F8212023
:100A100080F82090016BE2E7BDE8F09F08000240FB
:100A20001C000240300002404400024058000240D6
:100A30006C00024030B528B308C813491422194489
:100A4000B1FBF2F18900C163104981630221417752
:100A50001A6843F6F0718A43D0E900142143D0E9C3
:100A600002452C432143046921434469214384699D
:100A7000214311431960002141630122427701772C
:100A8000084630BD012030BDF8FFFDBF0000024028
:100A900070B5044690F82000002501280CD00120F4
:100AA00084F8200094F821600020012E06D084F8FC
:100AB00020000225284670BD022070BD022684F861
:100AC0002160A0632068066826F0010606602046C3
:100AD000FFF77EFEE06A00282068016802D041F03E
:100AE0000E0106E021F0040101602068016841F078
:100AF0000A0101602068016841F001010160D9E745
:100B000070B5044600F010F90546601C02D0044898
:100B10000078044400F008F9401BA042FAD370BDED
:100B2000140000202DE9F84FDFF8B8910024A9F156
:100B3000040B23460F2709F1040AABF1040EC9E0A8
:100B40000125A5402A40AA427DD1674ED1F804C0B4
:100B5000ACEB0608B44532D014DCBCF1030F3AD03C
:100B600009DCBCF1000F2AD0BCF1010F1CD0BCF194
:100B7000020F31D11DE0BCF1110F17D0BCF1120FE3
:100B80002AD119E0B8F5881F19D006DCB8F5803FE6
:100B900015D0B8F5801F1FD111E0B8F5001F0ED099
:100BA000B8F5041F18D10AE0CB6815E0CB681B1D0F
:100BB00012E0CB6808330FE0CB680C330CE08B6895
:100BC0002BB1012B4FF0080303D0456104E004234F
:100BD00002E0056100E00023FF2A01D8064601E09B
:100BE00000F104064FEA840501D9A5F12005D6F8E5
:100BF000008007FA05FC28EA0C0803FA05F548EA24
:100C00000508C6F800804D68ED0062D5374DAE6925
:100C100046F00106AE61AD6924F0030605F001055A
:100C20000095334D06EB050CDCF80850A607360F8F
:100C300007FA06F825EA0805DFF8B880404503D131
:100C40004FF0000817E044E0DFF8AC80404502D1E7
:100C50004FF001080FE0DFF8A480404502D14FF0CB
:100C6000020808E0DFF89880404502D14FF0030801
:100C700001E04FF0040808FA06F848EA0508CCF845
:100C800008804D68D9F80060ED024D4601D5164345
:100C900000E096432E604D68DAF80060AD025546DC
:100CA00001D5164300E096432E604D68DBF80060E6
:100CB000AD035D4601D5164300E096432E604D68B6
:100CC000DEF80060ED03754601D5164300E096435B
:100CD0002E60641C0D682A46E5407FF431AFBDE804
:100CE000F88F0000080401400000111000100240BD
:100CF0000000014000080140000C014000100140CC
:100D0000001401408068084000D001207047C2688C
:100D100021EA02030A4043EA0241016170470AB135
:100D2000016170470904FBE70148806870470000D3
:100D300014000020024881680278114481607047E5
:100D400014000020074810B5016841F0100101604F
:100D5000032000F0A1F80F2000F006F800F04AF898
:100D6000002010BD0020024030B505461C4887B069
:100D7000816941F400618161806906A900F4006025
:100D8000009001A800F030F900F05EF91549164A0C
:100D9000B0FBF1F11548491E0260416040F2E732B4
:100DA0000021C0E903218160816100F087FC04001B
:100DB00012D10E4800F04AFD04000DD1192000F0B8
:100DC0003DF8102D07D200222946192000F044F8E2
:100DD0000748056000E0012407B0204630BD000050
:100DE0000010024040420F00002C0140340500205A
:100DF000180000200F4808B5816941F001018161A8
:100E0000816901F001010091C16941F08051C16126
:100E1000C069002200F0805000900F21901E00F069
:100E20001BF80548416821F0E06141F00071416024
:100E300008BD00000010024000000140002809DB4E
:100E400000F01F02012191404009800000F1E020E4
:100E5000C0F8001170470000F0B40E4B1B680C4640
:100E6000C3F30223C3F10705042D00D90425191D7E
:100E7000072901D2002300E0DB1E012606FA05F156
:100E8000491E214099409E40761E16403143F0BCD9
:100E900002F0C8BA0CED00E0064900F0070208684D
:100EA0004FF6FF03184040EA0220034A104308604F
:100EB000704700000CED00E00000FA052DE9F04756
:100EC0000F46050061D0434E306800F00700B8427D
:100ED00009D2306820F0070038433060306800F0F5
:100EE0000700B84251D128683B4C810712D5400712
:100EF00003D5606840F4E06060602878000703D59F
:100F0000606840F4605060606068A96820F0F0009C
:100F1000084360602878C00728D06868012810D08E
:100F20002168022810D0890700292EDA616821F093
:100F3000030101436160FFF7F7FE804641F2883903
:100F40000DE021688903EFE78901EDE7FFF7ECFE8B
:100F5000A0EB0801494502D90320BDE8F08760688D
:100F6000696800F00C00B0EB810FEFD1306800F041
:100F70000700B8420BD9306820F0070038433060D2
:100F8000306800F00700B84201D00120E5E728787A
:100F9000400705D56068E96820F4E06008436060B8
:100FA0002878000706D56068296920F4605040EA77
:100FB000C100606000F058F86168084AC1F303118D
:100FC000515CC8400649086006480068FFF7CCFE3F
:100FD0000020C2E7002002400010024062640008C6
:100FE00020000020180000200F2202600C4A5368E5
:100FF00003F003034360536803F0F0038360536816
:1010000003F4E063C36052684FF4E06303EAD20282
:1010100002610448006800F00700086070470000A3
:101020000010024000200240044805490068496859
:10103000044AC1F30221515CC840704720000020DF
:1010400000100240726400080448054900684968BD
:10105000044AC1F3C221515CC840704720000020FF
:1010600000100240726400080E4A51680E4801F0F8
:101070000C03042B11D0082B0FD10C48C1F3834370
:10108000C903C05C0AD55168084AC1F34041921EA9
:10109000515C054A5043B0FBF1F0704704494843A6
:1010A000704700000010024000127A0052640008ED
:1010B00000093D002DE9F84F040070D02078C04DA4
:1010C000C00749D06868C0F38100012807D068686C
:1010D000C0F38100022809D16868C00306D52868DA
:1010E000800339D560680028E7D035E06068B0F546
:1010F000803F0BD010B1B0F5A02F11D0286820F49C
:1011000080302860286820F4802002E0286840F4BD
:1011100080302860606890B1FFF706FE06460AE05E
:10112000286840F480202860F0E700BFFFF7FCFD4E
:10113000801B642873D828688003F7D50CE0FFF77C
:10114000F3FD064605E000BFFFF7EEFD801B6428B7
:10115000F0D828688003F7D420789A4E80074FF0A3
:1011600001094FF0000839D5686810F00C0F07D05E
:101170006868C0F38100022809D16868C00306D4FA
:101180002868800714D52069012808D110E020695B
:10119000B0B1C6F80090FFF7C7FD074605E00AE1C9
:1011A000FFF7C2FDC01B0228C4D828688007F7D506
:1011B0002868616920F0F80040EAC10028600DE06D
:1011C000C6F80080FFF7B0FD074604E0FFF7ACFD6E
:1011D000C01B022823D828688007F7D4207800078E
:1011E0002CD57948A169D9B1C0F80090FFF79CFDD2
:1011F000074604E0FFF798FDC01B02280FD8686A75
:101200008007F7D571484FF4FA510068B0FBF1F050
:10121000009000BF0098411E0091FAD20EE080E0DD
:10122000C0F80080FFF780FD074604E0FFF77CFD73
:10123000C01B022875D8686A8007F7D42078400759
:1012400060D5E8690027C00008D4E86940F0805004
:10125000E861E869012700F0805000905C4801686F
:10126000C90513D40168834641F480710160FFF71A
:101270005BFD824606E000BFFFF756FDA0EB0A00CB
:1012800064284ED8DBF80000C005F5D5E0680128D9
:101290000AD008B1052813D0286A20F0010028627E
:1012A000286A20F0040002E0286A40F00100286269
:1012B000E06841F2883B98B1FFF736FD82460BE0CB
:1012C000286A40F004002862EEE700BFFFF72CFD1B
:1012D000A0EB0A0159455AD8286A8007F6D50CE0D8
:1012E000FFF722FD824605E0FFF71EFDA0EB0A0195
:1012F00059454CD8286A8007F6D41FB1E86920F018
:101300008050E861E06988B36968C1F3810102290E
:1013100044D00228C6F8608004D0FFF705FD0446DB
:1013200038E034E0FFF700FD074604E0FFF7FCFC7F
:10133000C01B02282BD828688001F7D4206AB0F59A
:10134000803F05D16868A16820F4003008436860D8
:10135000D4E908010843696821F4741108436860FE
:10136000C6F86090FFF7E0FC044606E025E000BF09
:10137000FFF7DAFC001B022809D828688001F7D59E
:101380001BE000BFFFF7D0FC001B022802D903209E
:10139000BDE8F88F28688001F4D40EE00128F7D06A
:1013A0006868226A00F48031914204D1616A00F4D5
:1013B0007010884201D00120EAE70020E8E7000031
:1013C00000100240000042428004424220000020FF
:1013D0000070004070B5040009D0606A002540B17B
:1013E00025616561A56294F8510040B10CE00120CF
:1013F00070BD6068B0F5827FF4D0E561F2E784F8F3
:101400005050204600F040F8022084F85100206837
:10141000016821F040010160A088218900F48270F8
:1014200001F404410843A18901F400610843217CCF
:1014300001F002010843217D01F001010843218BE5
:1014400001F400710843217F01F03801084394F84A
:10145000201001F080010843218D01F40051084360
:1014600021680860A069042101EA104021684860F1
:101470002068C16921F40061C1616565012084F8BB
:101480005100002070BD000000B585B00021009122
:101490000191029103910068104988421BD11048C4
:1014A000C16941F48041C161C16901F48041049185
:1014B000816941F0080181618069694600F0080096
:1014C00004904FF4204000900220019003200390EC
:1014D0000448FFF727FB05B000BD000000380040BE
:1014E00000100240000C01402DE9F84F98461646C6
:1014F0008A460446FFF718FC814694F851000128FB
:101500001ED1BAF1000F73D0002E71D094F85000A4
:10151000012815D0012784F85070032084F8510069
:1015200000256565C4F830A0A686E686A563A58774
:10153000E58765642564A068B0F5004F03D00CE032
:101540000220BDE8F88F2068016821F040010160A9
:101550002068016841F48041016020680168490603
:1015600003D4016841F040010160E068B0F5006F0C
:10157000606803D048B3012E27D047E008B1012EA0
:101580001FD1206B21680088C86006E02068816850
:10159000890709D5216B0988C160206B801C2063F5
:1015A000E08E401EE0860CE0FFF7BEFBA0EB0901D9
:1015B000414503D3B8F1FF3F03D035E0B8F1000F48
:1015C00032D0E08E0028E1D123E0206B2168007842
:1015D000087306E02068816889070AD5216B0978BD
:1015E0000173206B401C2063E08E401EE0860DE0FE
:1015F0002BE0FFF799FBA0EB0901414503D3B8F1BC
:10160000FF3F03D010E0B8F1000F0DD0E08E0028AE
:10161000E0D14A464146204601F08BFA08B120202D
:101620006065A06830B109E084F8517084F85050CA
:10163000032086E72068C1688068009084F85170B4
:1016400004F8505F60680028F3D0012079E7704704
:101650007047000070B590F83C20012A26D0012484
:1016600080F83C40022280F83D2003685A689D685B
:1016700022F070060A6832435A600D4B02689A42A3
:1016800008D0B2F1804F05D00A4B9A4202D00A4BE3
:101690009A4204D1496825F080031943916080F88B
:1016A0003D40002180F83C10084670BD022070BD0E
:1016B000002C0140000400400008004010B5040068
:1016C00003D094F83D0010B107E0012010BD0020C8
:1016D00084F83C00204600F01FF8022084F83D000A
:1016E000211D206801F0EEFA012084F8460084F8FC
:1016F0003E0084F83F0084F8400084F8410084F8FC
:10170000420084F8430084F8440084F8450084F8DB
:101710003D00002010BD00002DE9F04F85B00025F0
:101720000095019502950395064601682E48B1F192
:10173000804F3AD02D4A914234D1C16941F0040121
:10174000C161C0692B4C00F00400049004F1080151
:101750004FF080084FF480794FF4806A4FF0200BEF
:1017600081E8200F22481027E561C4E900072046E0
:10177000FFF760F908B1FFF741F8746266621D4C2B
:101780001B48443404F108013C3081E8200FE56136
:10179000C4E900072046FFF74DF908B1FFF72EF81E
:1017A000B462666205B0BDE8F08FC16941F0010125
:1017B000C161C16901F001010491816941F0040135
:1017C00081618069694600F0040004900720009060
:1017D0000948FFF7A7F9002205211C20FFF73CFB71
:1017E0001C20FFF72BFBDDE7001002400008004043
:1017F00008000240DC0300200008014090F83D1082
:10180000012901D001207047022180F83D100068B5
:101810000B49884208D0B0F1804F05D00949884271
:1018200002D00949884204D1816801F007010629E4
:1018300003D0016841F00101016000207047000001
:10184000002C0140000400400008004090F83D10CA
:10185000012901D001207047022180F83D10016864
:10186000CA6842F00102CA6000680B49884208D089
:10187000B0F1804F05D00949884202D0084988421A
:1018800004D1816801F00701062903D0016841F005
:101890000101016000207047002C0140000400405D
:1018A0000008004070B5044690F83C00002501286F
:1018B00017D0012684F83C60022084F83D0020689F
:1018C000826822F0770222F47F4282600868502802
:1018D00038D00DDC20284FD005DC90B3102811D172
:1018E0004AE0022070BD302846D040280AD13BE0B3
:1018F00060282FD070280DD0B0F5805F03D0B0F5F0
:10190000005F12D0012584F83D60002084F83C007F
:10191000284670BDCB68D1E90121206801F090FA1A
:101920002068816841F0770109E0CB68D1E90121A5
:10193000206801F085FA2068816841F48041816067
:10194000E1E719E0CA684968206801F02DFB5021E1
:10195000206806E0CA684968206801F063FB6021DE
:10196000206801F077FACEE7CA684968206801F07C
:101970001BFB40212068F4E7226801461046F0E78F
:10198000704700002DE9F05F764F0446037F002189
:101990000122DFF8C8A1724807F11806DFF8C891E4
:1019A0004FF6FF7B07F10C0806F10C05012B15D053
:1019B000022B57D0042B77D18378002B76D0012BC4
:1019C00072D181700821204600F030FCC8F8080070
:1019D000B96888426BD9A0EB0100A2E0037873B12B
:1019E000012B61D101700021204600F01FFCC8F8D6
:1019F00000003968884213D9A0EB010016E002709C
:101A00004FF00001204600F011FC38602068016AA8
:101A100021F00A0101622068016A41F0020142E0FE
:101A200001D3306803E0ABEB01010844306004F0FF
:101A30002EF84E4A4E4B04F03DF803F06FFE28603E
:101A4000484501DDC5F800902068016A21F00A01CF
:101A500001622068016A0162DAF80000C16821F0C1
:101A6000020146E0437873B1012B1DD1417004217E
:101A7000204600F0DBFBC8F804007968884217D9DB
:101A8000A0EB01001AE042704FF00401204600F084
:101A9000CDFB78602068016A21F0A0010162206816
:101AA000016A41F020010162BDE8F09F23E032E0CD
:101AB00001D3706803E0ABEB01010844706003F0F0
:101AC000E6FF2A4A2A4B03F0F5FF03F027FE686081
:101AD000484501DDC5F804902068016A21F0A001A5
:101AE00001622068016A0162DAF80000C16821F031
:101AF0000401C160D8E782700821204600F096FBFF
:101B0000B8602068016A21F4007101622068016AEE
:101B100041F40071C7E701D3B06803E0ABEB01010A
:101B20000844B06003F0B3FF104A114B03F0C2FF4A
:101B300003F0F4FDA860484501DDC5F80890206871
:101B4000016A21F4007101622068016A0162DAF819
:101B50000000C16821F00801CBE700004C03002021
:101B60008C0000206C1E002000000C449CC420B09F
:101B70007268913F2DE9F041054690F83C0000263F
:101B80000C46012810D0012085F83C0072B1042ACF
:101B90001CD0082A2CD00C2A50D00126002085F811
:101BA0003C003046BDE8F0810220FBE7D4E900129A
:101BB000E368286801F00AFA2868816921F00C01BD
:101BC000816128688169A26811430FE0D4E900129D
:101BD000E368286801F038FA2868816921F44061D7
:101BE000816128688169A26841EA02218161D5E7A3
:101BF0002868D4E9002C277B036A016A21F48071EC
:101C00000162C16923F4007321F0030141EA0C0170
:101C100021F0F00C39074FF400774CEA116107EA24
:101C200002221A43C16102622868C16921F00C01D5
:101C3000C1612868C169A26811432BE02868D4E912
:101C40000021E768036AD0F820C02CF4805CC0F85B
:101C500020C0D0F81CC023F400532CF4407C4CEA84
:101C6000012121F4704C4FF6FF7101EA07314FF466
:101C7000005741EA0C0107EA02321A43C1610262CD
:101C80002868C16921F44061C1612868C169A268FE
:101C900041EA0221C16181E710B5040003D094F844
:101CA0003D0010B107E0012010BD002084F83C0089
:101CB000204600F01EF8022084F83D00211D206817
:101CC00001F000F8012084F8460084F83E0084F812
:101CD0003F0084F8400084F8410084F8420084F812
:101CE000430084F8440084F8450084F83D00002057
:101CF00010BD704730B50446002551B104290DD000
:101D0000082910D094F8410094F84520012811D1F9
:101D10000EE094F83E0094F84220F7E794F83F0074
:101D200094F84320F2E794F8400094F84420EDE75B
:101D3000012A01D0012030BD022059B1042912D05E
:101D4000082919D084F8410084F845000C2938D0BE
:101D5000012534E084F83E0084F842002068C2681F
:101D600042F0020210E084F83F0084F8430020684B
:101D7000C26842F0040207E084F8400084F844009E
:101D80002068C26842F00802C2600122206800F0A8
:101D9000D5FF0E492068884208D0B0F1804F05D0A9
:101DA0000B49884202D00B49884204D1816801F076
:101DB0000701062903D0016841F0010101602846AE
:101DC00030BD2068C26842F01002DDE7002C0140FF
:101DD00000040040000800402DE9F041044600687E
:101DE000C66805694FF00007A90713D5B10711D5DB
:101DF000F91E016101202077206880698007204654
:101E000002D0FFF7BFFD04E000F0A4F8204600F088
:101E100036F92777680716D5700714D521686FF053
:101E200004000861022020772068806910F4407F58
:101E3000204602D0FFF7A6FD04E000F08BF8204614
:101E400000F01DF92777280715D5300713D521682D
:101E50006FF008000861042020772068C0698007BF
:101E6000204602D0FFF78EFD04E000F073F8204614
:101E700000F005F92777E80616D5F00614D5216895
:101E80006FF010000861082020772068C06910F406
:101E9000407F204602D0FFF775FD04E000F05AF8BD
:101EA000204600F0ECF82777E80708D0F00706D0C6
:101EB00021686FF001000861204600F0ADF92806A6
:101EC00008D5300606D521686FF0800008612046ED
:101ED000FFF7BDFB680608D5700606D521686FF0D0
:101EE00040000861204600F0B6F9A8060AD5B00601
:101EF00008D521686FF0200008612046BDE8F04158
:101F0000FFF7A6BBBDE8F08100B585B000210091C8
:101F100001910291039100680B49884211D10B484D
:101F2000816941F0080181618069694600F008001B
:101F30000490C02000900220019003900448FEF716
:101F4000F1FD05B000BD0000000800400010024097
:101F5000000C0140704770B5044690F83C00002624
:101F60000D4601280FD0012084F83C006AB1042AF4
:101F70001DD0082A2FD00C2A3FD00126002084F83B
:101F80003C00304670BD022070BD206800F06AFF42
:101F90002068816941F0080181612068816921F030
:101FA00004018161206881692A69114311E0206878
:101FB00000F080FF2068816941F400618161206840
:101FC000816921F480618161206881692A6941EA1F
:101FD00002218161D2E7206800F098FF2068C16982
:101FE00041F00801C1612068C16921F00401C161AB
:101FF0002068C1692A69114311E0206800F0B2FF2E
:102000002068C16941F40061C1612068C16921F49F
:102010008061C1612068C1692A6941EA0221C16108
:10202000ACE710B5040003D094F83D0010B107E010
:10203000012010BD002084F83C00204600F01EF86E
:10204000022084F83D00211D206800F03BFE0120A5
:1020500084F8460084F83E0084F83F0084F840008D
:1020600084F8410084F8420084F8430084F8440076
:1020700084F8450084F83D00002010BD704770478B
:10208000704700002DE9F04117460D0004464FF05F
:1020900000060CD0042D11D0082D16D094F8410064
:1020A000022819D094F84100012818D07CE094F857
:1020B0003E00022810D094F83E00F5E794F83F0067
:1020C000022809D094F83F00EEE794F84000022877
:1020D00002D094F84000E7E70220BDE8F081002F2D
:1020E00062D0002B60D04649464ADFF81CC102206E
:1020F0004DB1042D18D0082D27D084F841000C2DA7
:1021000044D0012679E084F83E00606A8162606A0A
:102110003946C262606AC0F830C02268606A3432F0
:10212000FEF7B6FC88BB21E084F83F00A06A81621C
:10213000A06A3946C262A06AC0F830C02268A06AAC
:102140003832FEF7A5FC00BB15E084F84000E06AD9
:102150008162E06A3946C262E06AC0F830C0226833
:10216000E06A3C32FEF794FC78B909E02068C16867
:1021700041F400711EE02068C16841F4806119E0FB
:102180002068C16841F4006114E00DE0206B8162B9
:10219000206B3946C262206BC0F830C02268206BC9
:1021A0004032FEF775FC08B1012096E72068C1684F
:1021B00041F48051C16001222946206800F0BEFD33
:1021C00012492068884203D1426C42F400424264C2
:1021D0002068884208D0B0F1804F05D00C49884271
:1021E00002D00C49884204D1816801F00701062918
:1021F00003D0016841F00101016030466DE7000045
:10220000572D0008B52D0008ED2D0008002C0140C9
:10221000000400400008004000680349884201D1E2
:10222000FEF788BD70470000002C014002460020E8
:1022300041B1042909D008290AD00C2901D110681C
:10224000006C70471068406B70471068806B704777
:102250001068C06B7047704770477047F8B50168E9
:1022600004460868CA684B6910F00F0F4FF000056C
:1022700059D003F0010602F49077374365D0C107C7
:1022800005D0D10503D5616C41F0010161644107BE
:1022900005D5D90703D0616C41F002016164810763
:1022A00005D5D90703D0616C41F0040161640107D1
:1022B00007D502F02001314303D0616C41F00801E1
:1022C0006164616C00293AD0800604D5900602D57D
:1022D000204600F088FF20684069616CC0F38010E0
:1022E000090700D460B3204600F048FF2068406929
:1022F000400621D52068143050E8001F21F040012D
:1023000040E80012002AF5D1E06BA8B16D494163A5
:10231000E06BFEF799FA002811D0E06B416B01B039
:10232000BDE8F040084783060FD593060DD520463B
:10233000BDE8F84000F057BF2046FFF78EFFF8BD1C
:102340002046FFF78AFF6564F8BD266B2023012E27
:102350007CD1C6067AD5D60678D50868486800903C
:1023600048694FF00206400640D5E16B08684068B6
:102370000004000CE8D0A28D8242E5D9E08588698E
:1023800020282DD020680C3050E8001F21F48071E7
:1023900040E80012002AF5D12068143050E8001FF0
:1023A00021F0010140E80012002AF5D12068143024
:1023B00050E8001F21F0400140E80012002AF5D14A
:1023C00084F84230256320680C3050E8001F21F06B
:1023D000100140E80012002AF5D1E06BFEF710FA78
:1023E0006663A08DE18D401A81B22AE0A08DE18D57
:1023F000401A81B2E08D0028A6D00029A4D022681E
:102400000C3252E8000F20F4907042E80007002FD1
:10241000F5D12068143050E8002F22F0010240E886
:102420000027002FF5D184F84230256320680C3056
:1024300050E8002F22F0100240E80023002BF5D1D5
:1024400066632046FFF708FFF8BDFFE705062BD5BA
:10245000150629D594F841002128F5D1A068B0F5DA
:10246000805F01D12069B0B1206A411C21622168DE
:1024700000784860E08C401E0004000CE084E3D14A
:102480002068C16821F08001C1602068C16841F006
:102490004001C160D8E7206A0088C0F308004860A6
:1024A000206A801C2062E5E74006CDD55006CBD5DA
:1024B000CA68204622F04002CA6084F8413000F029
:1024C000FEF8C1E77F30000870B5040004D094F82E
:1024D0004100002510B106E0012070BD84F8405095
:1024E000204600F023F8242084F841002068C168C9
:1024F00021F40051C160204600F0D6FE2068016939
:1025000021F4904101612068416921F02A01416173
:102510002068C16841F40051C1606564202084F8DE
:10252000410084F842006563002070BD2DE9F04150
:1025300086B0002406460094019402940394006837
:102540002E49884256D12E48C16941F48021C1618B
:10255000C16901F480210491816941F00801816120
:102560008069284D00F0080004904FF480600090CE
:10257000022001900320039069462846FEF7D2FA14
:10258000E814CDE90004694628460294FEF7CAFA29
:102590001E4D1D488027C5E90004C5E902474FF0DC
:1025A00020082C61C5E905482846EC61FEF742FA8F
:1025B00008B1FEF723F9F5636E62144D12484435F5
:1025C000143801C5102091C5104845F81049443011
:1025D000C5E90548EC61FEF72DFA08B1FEF70EF9E2
:1025E000B5630022052127206E62FEF735FC272007
:1025F000FEF724FC06B0BDE8F08100000048004072
:1026000000100240000C014030000240AC040020E9
:1026100090F84230202B01D00220704721B11AB12E
:102620000023036300F09CBE01207047214910B5D0
:1026300088423DD1204901204FF4E174487008469A
:1026400000780A2831D2DFE800F0050710151A1FBC
:102650000A282C21002009E0012001F08BF92046F6
:102660002146BDE8104001F0E9BC0220BDE8104061
:1026700001F080B9BDE81040012002F095BCBDE832
:102680001040012002F0A3BC012200E00022322110
:10269000BDE81040084601F097BCBDE8104002F0CC
:1026A0008DBCBDE8104002F09ABC00210846D8E776
:1026B00010BD0000640400208F00002070477047A8
:1026C000FEE7000001F058F801F026F9012001F0C2
:1026D00051F901F02FFF00F075FF05490120087046
:1026E000002002F0A9FD012001F04DF9FBE70000F8
:1026F0009C0000200C4F0D4C0D4D4FF480564FF4B4
:10270000006831463846FEF7FDFA207041462846FB
:10271000FEF7F8FA607031462846FEF7F3FAA0702B
:10272000012001F030F9ECE7000C01409800002096
:1027300000080140154808B5416941F001014161B7
:102740004069002200F00100009005210B20FEF7F7
:1027500083FB0B20FEF772FB002205210C20FEF705
:102760007BFB0C20FEF76AFB002205210D20FEF703
:1027700073FB0D20FEF762FB002205210E20FEF701
:102780006BFBBDE808400E20FEF758BB001002406E
:1027900010B5A4B01C221C496846FDF776FE002146
:1027A000684601F0FCF8194C17491C2220601C31C6
:1027B00007A8FDF76AFE002107A801F0F0F812490A
:1027C00060601C2238310EA8FDF75FFE00210EA8C4
:1027D00001F0E5F80C49A0601C22543115A8FDF762
:1027E00054FE002115A801F0DAF80749E0601C2228
:1027F00070311CA8FDF749FE00211CA801F0CFF89C
:10280000206124B010BD0000C46300080000002057
:102810002DE9F04385B000243848009401940294D7
:102820000394816941F010018161816901F0100117
:102830000491816941F020018161816901F02001E9
:102840000491816941F004018161816901F0040111
:102850000491816941F0080181618069284F00F08D
:1028600008004FF400550490002229463846FEF730
:1028700056FADFF89080002248F238014046FEF711
:102880004EFA01224FF4E0614046FEF748FADFF8C5
:102890007890002238214846FEF741FA009502263A
:1028A00001250396CDE9015469463846FEF73AF909
:1028B00048F23870CDE90005CDE902466946404648
:1028C000FEF730F928038DE8310069464846FEF7E7
:1028D00029F94FF4C0508DE8310069464046FEF7B3
:1028E00021F93820CDE90005CDE902466946484680
:1028F000FEF718F905B0BDE8F083000000100240B3
:102900000010014000080140000C0140104810B5C3
:102910000E4901604FF48271416000218160C16005
:102920004FF400720161C0E905121022C0E90721CD
:10293000416281620A21C162FEF74CFD002803D08A
:10294000BDE81040FDF75ABF10BD00000038004040
:10295000F402002010B58AB000242A48049405949B
:1029600006940794089409940094019402944FF0FB
:102970008041039401604721C0E901144FF6FF71C3
:10298000C0E903148461FEF799FE08B1FDF736FF34
:102990004FF48050049004A91A48FEF783FF08B151
:1029A000FDF72CFF1748FFF777F908B1FDF726FF71
:1029B000089408A913480994FEF74CFE08B1FDF7E6
:1029C0001DFF0120CDE900400294002269460D4818
:1029D0000394FFF7CFF808B1FDF710FF0422694612
:1029E0000848FFF7C7F808B1FDF708FF0822694655
:1029F0000448FFF7BFF8002801D0FDF7FFFE0AB03A
:102A000010BD00004C03002010B58EB000240794C8
:102A1000089409940A940B941C2168460C94FDF7C1
:102A20006EFD2348214901604721C0E9011440F2AD
:102A3000E731C0E9031480218161FEF73FFE08B150
:102A4000FDF7DCFE4FF48050079007A91848FEF709
:102A500029FF08B1FDF7D2FE1548FFF7E2FA08B1E9
:102A6000FDF7CCFE0B940BA911480C94FEF7F2FD78
:102A700008B1FDF7C3FE6020CDE9000402940022F6
:102A800069460B480494FFF766FA08B1FDF7B6FEF5
:102A9000042269460648FFF75EFA08B1FDF7AEFE6C
:102AA0000348FFF731FA0EB010BD000000080040E7
:102AB000940300200C4810B50A4901604FF41651E8
:102AC0004160002181600C22C160C0E90412816173
:102AD000C161FFF7F9FC002803D0BDE81040FDF705
:102AE0008DBE10BD0048004064040020044C2078D6
:102AF00008B100F055FE012000F045FFF7E70000A7
:102B00009C000020FEE70000054C00BF00F001FF24
:102B1000207800F0FFFE012000F035FFF6E700000E
:102B20009B000020FEE701F055FE012000F02BFF86
:102B3000FBE7F8B515460E460B4600920446012207
:102B4000022100F011F840B93346002280212046CE
:102B5000009500F009F8002804D0606D40F02000D6
:102B600060650320F8BD00002DE9F8431E4691463C
:102B700088460446089DFEF7D7F8401B351AFEF735
:102B8000D3F8074625480068C0F3CB30684338E0E7
:102B9000701C37D0FEF7C8F8C01BA84203D215B18D
:102BA000009860B32CE02068416821F0E0014160AA
:102BB0006068B0F5827F0BD1A068B0F5004F02D0FD
:102BC000B0F5806F04D12068016821F040010160F8
:102BD000A06AB0F5005F09D12068016821F40051B6
:102BE00001602068016841F400510160012084F80F
:102BF0005100002084F850000320BDE8F883002530
:102C0000401E00902068816838EA010004D000214D
:102C10004945BDD10020F0E70121F9E7200000205F
:102C200010B5502080F31188BFF34F8FBFF36F8F23
:102C300002F0ACFC18B104494FF08050086000204D
:102C400080F3118810BD000004ED00E030B58FB0B6
:102C500028216846FDF753FC14210AA8FDF74FFC14
:102C600001210804CDE900100024029402250491FA
:102C7000CDE907504FF4E01009906846FEF71AFAC4
:102C800008B172B6FEE70F20CDE90A054FF4806067
:102C9000CDE90C4002210AA80E94FEF70FF9002896
:102CA00001D072B6FEE70FB030BD70470148FFF7A4
:102CB00093B80000340500200148FFF78DB80000EC
:102CC0004C030020F0B50268194B1A4C1A4D4FF016
:102CD0008047984205D0B84203D0A04201D0A84214
:102CE00003D122F070064A683243984205D0B842B8
:102CF00003D0A04201D0A84203D122F44074CA6894
:102D000022434C6922F08002224302608A68C26238
:102D10000A688262984201D1096901630121416117
:102D20000169C90703D0016921F001010161F0BD0A
:102D3000002C0140000400400008004010B501F0E4
:102D40001F030121046A99408C430462016A9A407E
:102D50001143016210BD10B5446A0121626A8242CA
:102D600005D121778069F8B984F83E101CE0A26A89
:102D7000824206D1022222778069A8B984F83F10E6
:102D800012E0E26A824206D104222277806958B9B1
:102D900084F8401008E0226B824205D10822227795
:102DA000806908B984F841102046FFF768F90020CF
:102DB000207710BD10B5446A616A814201D10120BB
:102DC0000DE0A16A814201D1022008E0E16A81425E
:102DD00001D1042003E0216B814201D1082020773A
:102DE0002046FFF74DF90020207710BD10B5446A4A
:102DF0000121626A824203D1217784F83E1019E0F2
:102E0000A26A824204D10220207784F83F1011E0A8
:102E1000E26A824204D10420207784F8401009E05D
:102E2000226B824204D10820207784F8411001E00F
:102E300084F83D102046FEF7A3FD0020207710BD4A
:102E400010B5846842EA032224F47F440A432243F3
:102E5000826010BD826822F070020A4342F00701CE
:102E60008160704730B5036A026A22F00102026293
:102E70004268846924F073050C682C4323F0020532
:102E80008B682B430A4DA8420BD123F00805CB6871
:102E900022F440722B434D6923F0040315438A69E1
:102EA0002A434260846149684163036230BD000087
:102EB000002C014030B5026A036A23F0100303625C
:102EC000436884690D6824F4E64444EA05248D6867
:102ED00022F0200242EA05120B4DA8420ED1CD6825
:102EE00022F0800242EA05124D6923F4406343EA6E
:102EF00085038D6922F0400243EA850343608461C3
:102F000049688163026230BD002C014030B5036A1C
:102F1000026A22F4807202624268C46923F4007378
:102F200024F073050C682C438D6843EA05230C4D8F
:102F3000A8420ED1CD6823F4006343EA05234D690E
:102F400022F4405242EA05128D6923F4806342EA7A
:102F500005124260C4614968C163036230BD00006C
:102F6000002C014030B5046A026A22F480520262E9
:102F70004268C3690D6823F4E64343EA05238D687C
:102F800024F4005444EA0534064DA84204D14D69A6
:102F900022F4804242EA85124260C36149680164BA
:102FA000046230BD002C014010B5036A046A24F0AD
:102FB00001040462846924F0F00444EA021423F05A
:102FC0000A020A438461026210BD000070B5056AFE
:102FD000046A24F00104046284690F4EB04208D0F0
:102FE000B0F1804F05D00D4EB04202D00C4EB04231
:102FF00003D124F00304144301E044F001041A0750
:1030000024F0F00444EA126225F00A0301F00A01F8
:1030100019438261016270BD002C01400004004030
:103020000008004010B5036A046A24F0100404622A
:10303000846923F0A00324F4704444EA023243EA92
:1030400001118261016210BD30B5046A056A25F084
:1030500010050562856925F4407545EA022222F4CF
:1030600070454FF6FF7202EA033224F0A0032A43B0
:10307000A02404EA011119438261016230BD10B538
:10308000406A0021C185C184FFF7E7F810BD70B523
:10309000446A2068406994F84110C0F3C0100025CC
:1030A000212904D118B1E584204600F08EF820686B
:1030B000406994F84210C0F38010222904D118B15D
:1030C000E585204600F05AF8606C40F0100060641E
:1030D0002046FFF7C2F870BD10B50146406A096886
:1030E00009684FF0000289062ED4C28501680C31B0
:1030F00051E8003F23F4807341E80034002CF5D1FF
:103100000168143151E8003F23F0010341E8003425
:10311000002CF5D10168143151E8003F23F0400341
:1031200041E80034002CF5D1202180F84210016BD9
:10313000012909D101680C3151E8003F23F0100347
:1031400041E80034002CF5D14263016B012902D023
:10315000FFF76CFA10BD818DFFF77EF810BD10B53A
:10316000406A01214163016B012902D0FFF7A6FAF1
:1031700010BD818D4908FFF76FF810BD01680C3153
:1031800051E8002F22F4907241E80023002BF5D182
:103190000168143151E8002F22F0010241E80023B8
:1031A000002BF5D1016B012909D101680C3151E8DF
:1031B000002F22F0100241E80023002BF5D120213E
:1031C00080F8421000210163704701680C3151E81A
:1031D000002F22F0C00241E80023002BF5D120216E
:1031E00080F84110704708B590F84210222901D0AC
:1031F000022008BD82684FF480539A4201D10169D0
:1032000021B1816A9A421BD04AB10AE00268816A00
:103210005268C2F308020A80816A891C08E00269C8
:1032200072B10268526802F07F020A70816A491C1A
:103230008162C18D491E0904090CC18503D01BE0C0
:1032400002685268F1E70168CA6822F02002CA6089
:103250000168CA6822F48072CA6001684A6922F073
:1032600001024A61202180F8421000214163026B73
:10327000012A03D0FFF7DAF9002008BD01630168D5
:103280000C3151E8002F22F0100241E80023002BFE
:10329000F5D101680A68D20602D50A68496800912A
:1032A000818DFEF7D9FFE7E770B504460068016934
:1032B000E26821F44051114301612169A06808438B
:1032C000616908432168CA6841F20C639A4302436A
:1032D000CA6020684169A26921F4407111434161CB
:1032E0001E492068884202D1FDF7AEFE01E0FDF7DD
:1032F0009BFE00EBC00101EB0012606864218000BE
:10330000B2FBF0F3B3FBF1F36FF018067343B2FBBB
:10331000F0F5B2FBF0F605EB8305322303EB051560
:10332000B5FBF1F5B6FBF1F605F0F00505EB06157A
:10333000B2FBF0F6B2FBF0F0B0FBF1F06FF0180268
:10334000504306EB800003EB0010B0FBF1F0216866
:1033500000F00F002844886070BD00000038014074
:1033600038B58162044682850020134660642222BB
:1033700084F84220E56B1B4AAA62E56B1A4AEA62AE
:10338000E56B1A4A2A63E26B50630A462168E06BD8
:10339000091DFDF77DFB20680168406800902069E9
:1033A00048B120680C3050E8001F41F4807140E8BB
:1033B0000012002AF5D12068143050E8001F41F0B7
:1033C000010140E80012002AF5D12068143050E8CD
:1033D000001F41F0400140E80012002AF5D1002012
:1033E00038BD0000D93000085F3100088F30000878
:1033F0000148FEF733BF000064040020FEE74100EF
:10340000080218BF04200A0E18BF40F001004FF058
:103410007F4232EA010108BF40F00200012808BFE4
:10342000052070470907090E002804DB00F1E020A1
:1034300080F80014704700F00F0000F1E02080F8E1
:10344000141D7047012102F07EBF0021084602F0E2
:10345000C3BC6FF05E01080702F075BF2DE9F04DA7
:103460000D4614464FF07F41B1EB440F9EBF4FF025
:10347000FF312960BDE8F08D4FF0004040EA0421A3
:10348000C4F3C750783810F01F024A4B4FEA601C53
:10349000C2F120067B44C4F3C750A0F178004FEA84
:1034A000601003EB800053F82C3008BFD0E901C650
:1034B00012D0D0F804C093402CFA06F73B4387683B
:1034C0000CFA02FC27FA06F8C06807FA02F2F0408C
:1034D0004CEA080C42EA0006A3FB0132ACFB01C037
:1034E000A6FB016101EB0C068E4234BF4FF0010CCC
:1034F0004FF0000CC1186144BCF1000F02D08142B2
:1035000002D903E0814201D2012000E000201044F2
:1035100000F120024FEA92188006CA0C40EA4230BD
:103520004F03C5F8008002F035FD8246384602F0B0
:1035300049FD6FF0120102F006FF0746304602F027
:1035400041FD6FF0250102F0FEFE834639465046EC
:1035500002F0DAFB594602F0D7FB00F500666FF384
:103560000B065146304602F047FE394602F044FE53
:10357000594602F037FE104902F038FD07460F4960
:10358000304602F033FD394602F0BEFB07460C49D7
:10359000304602F02BFD394602F0B6FB14F0004F26
:1035A00008BFBDE8F08DC8F1805180F0004029606F
:1035B000BDE8F08D90810000DB0FC92F22AAFD2904
:1035C0000000C92F05480068C16841F01001C160C2
:1035D000012203490148FFF71BB8000064040020E2
:1035E0008F0000202DE9F843044602464F48694603
:1035F000B0EB420F09D94FF0E640B0EB420F94BF59
:1036000000204FF0FF30009030E0494B22F00040A6
:10361000834271D94749204602F0E8FC02F0B2FD2E
:10362000804602F09BFC00F00300009042494046B7
:1036300002F0DCFC05464149404602F0D7FC064654
:103640003F49404602F0D2FC07463E49404602F060
:10365000CDFC214602F0C6FD394602F0CDFD3146D3
:1036600002F0CAFD294602F0C7FD04462546009C2B
:10367000002C45DB294614F0010F08461CD002F04F
:10368000B5FC0646304902F0B1FC304902F0AAFD13
:10369000314602F0ABFC2E4902F036FB314602F017
:1036A000A5FC294602F0A2FC294602F02DFB14F0ED
:1036B000020F1CD0BDE8F88302F098FC05462549AE
:1036C00002F094FC244902F01FFB294602F08EFC14
:1036D000224902F019FB294602F088FC4FF07E5186
:1036E00002F012FB14F0020F08BFBDE8F88380F06F
:1036F0000040BDE8F883FFE71046FFF7AFFEB4E7F0
:103700006800B0F17F4F3CBF4FF07E50BDE8F883BA
:1037100007D14FF00100FCF721FFBDE8F843FFF7A8
:1037200094BE2846BDE8F843FFF78CBEB61F927ED4
:10373000490E494683F9223F1A61342C0020A233F6
:1037400000A0FD390000C93F336D4C39DA82083CD6
:10375000A0AA2ABEB93AB2BACA9F2A3DDDFFFFBE6F
:10376000044900220B685A6209684A6A8242FCD303
:10377000704700004C03002010B50848FEF73EF8E3
:1037800000210648FEF7B6FA04210448FEF7B2FA13
:10379000BDE8104008210148FEF7ACBA4C030020F8
:1037A00010B500F043F86420FDF7AAF900F012F814
:1037B0006420FDF7A5F900F065F86420FDF7A0F995
:1037C000BDE810404FF400510148FDF7A0BA0000D9
:1037D0000010014010B5124C002210212046FDF7C8
:1037E0009EFA0220FFF7BCFF012210212046FDF7C0
:1037F00096FA0C20FFF7B4FF002210212046FDF7B7
:103800008EFA08480068C16841F00401C160642074
:10381000FDF776F9044804490C314068486010BD52
:10382000000801404C030020901E002010B5124CEF
:10383000002208212046FDF772FA0220FFF790FFD0
:10384000012208212046FDF76AFA0C20FFF788FFC5
:10385000002208212046FDF762FA08480068C16886
:1038600041F00201C1606420FDF74AF904480449AF
:103870000C310068086010BD000801404C030020B6
:10388000901E002010B5124C002220212046FDF78A
:1038900046FA0220FFF764FF012220212046FDF7AF
:1038A0003EFA0C20FFF75CFF002220212046FDF7A6
:1038B00036FA08480068C16841F00801C160642018
:1038C000FDF71EF9044804490C318068886010BD7A
:1038D000000801404C030020901E0020FDF732FA42
:1038E000FFF7B4F9FEF794FFFEF724FFFFF732F875
:1038F000FFF78AF8FFF70AF8FFF7DCF8FEF748FF52
:1039000000F048F8FEE701460020842900D0C81CDA
:10391000704770477047000010B5124C00222021FC
:103920002046FDF7FCF9002210212046FDF7F7F9AB
:10393000002208212046FDF7F2F900224FF4004151
:103940000948FDF7ECF90523084A00210848FEF76D
:1039500099FB064A05230A32BDE8104004210448B9
:10396000FEF790BB000C014000080140A822002097
:103970009403002010B5044601F0F2FC2046BDE897
:10398000104001F01FBD10B500B9012001F0F8FB97
:10399000002010BD10B501F019FC002010BD7FB54E
:1039A0000D4604464169B0F9080081B1A16971B1C1
:1039B000FFF7A9FFD4E905128DE80700D4E900104C
:1039C0002B46226901F0B7FD039004B070BDFFF7EC
:1039D0009AFF03A9CDE90001208A2B4682B2D4E9DF
:1039E000001001F07BFD012801D00020EDE70398D5
:1039F000EBE700002DE9F041184C0F460546E6685C
:103A00002068001D01F0F4FA38B9206890F82C10F5
:103A100001208840216981432161681C07D137B1A9
:103A20002168BDE8F0410E48091D01F025BB206862
:103A30003544B5424560216805D2A06BBDE8F04130
:103A4000091D01F001BB606B091D01F0FDFAA06AC0
:103A5000854200D2A562BDE8F0810000240000206C
:103A6000580600202DE9F041054601F011FB2E4CCF
:103A7000A068401CA06020682C4F10B1606940B362
:103A80002DE02560A068012829D1002606EB8600DC
:103A900007EB800001F0CAFA761C072EF6D3234804
:103AA0008C3001F0C3FA2148A03001F0BFFA1F4862
:103AB000B43001F0BBFA1D48C83001F0B7FA1B481A
:103AC000DC3001F0B3FA19488C3060631430A06325
:103AD00005E02068E96AC06A884200D82560606A0B
:103AE000401C6062E96A012022698840104320611D
:103AF00001EB810007EB8000291D01F0BDFA01F008
:103B0000E7FA606900280CD02068E96AC06A884238
:103B100007D207494FF080500860BFF34F8FBFF3C3
:103B20006F8FBDE8F0810000240000207C0500209C
:103B300004ED00E010B5044690F8510058B101289A
:103B40000CD002280FD0502080F31188BFF34F8F84
:103B5000BFF36F8FFEE7206B01F0CEFA2046BDE881
:103B6000104001F0C9BA10BD10484FF4C0514207CF
:103B700006D0C01D0D4920F00700411AC1F5C05103
:103B80000B4A00230144C2E900030839183A21F026
:103B9000070111604B600B600B1AC0E900139360C2
:103BA0004FF0004053605061704700006C060020E9
:103BB00078000020144E154CA6F1C8074FF080582D
:103BC000DFF84C9012E000BF01F062FAF068C568BF
:103BD000281D01F00DFAA068401EA0606068401E1C
:103BE000606001F075FA2846FFF7A4FF60680028BE
:103BF000EAD138680128F9D9C9F80080BFF34F8F9E
:103C0000BFF36F8FF2E7000044060020240000207D
:103C100004ED00E02DE9F0479A46DDE9098481468C
:103C20006FF00303206B03EB82021044089E20F028
:103C30000707780707D0502080F31188BFF34F8F14
:103C4000BFF36F8FFEE7002561B1002023180A5CE7
:103C500083F834200A5C12B1401C1028F6D384F893
:103C6000435001E084F83450072E00D30626E66264
:103C7000C4E91165201D01F0E4F904F1180001F018
:103C8000E0F92461C6F107006462A061E56484F88C
:103C9000505052464946384600F0C0F82060B8F10E
:103CA000000F01D0C8F80040BDE8F08730B51149D9
:103CB00000E011460A688242FBD34B685C188442DC
:103CC00003D1406818444860084643681C18944271
:103CD00009D1084C183C2468A24209D052681A4401
:103CE00042600A6812680260814200D0086030BDFC
:103CF0000460F9E7780000200648416B096829B1A3
:103D0000416BC968C9684968816270474FF0FF31EB
:103D1000FAE700002400002008484068401C4FF0EB
:103D2000500080F3118804D0BFF34F8FBFF36F8F23
:103D3000FEE7BFF34F8FBFF36F8FFEE780000020D9
:103D40002DE9F0410546002701F0D4FA324E3068E3
:103D500008B9FFF709FF706905424ED1C5B30835B0
:103D600068070ED005F00700C0F108000544680799
:103D700007D0502080F31188BFF34F8FBFF36F8FB0
:103D8000FEE72DB37068854237D8234818300146C6
:103D90000C6801E020460C466168A94202D2216805
:103DA0000029F7D131688C4227D00768216801606B
:103DB00060680837411B10290FD96019420708D0E5
:103DC000502080F31188BFF34F8FBFF36F8FFEE752
:103DD00013E041606560FFF769FF61687068401A31
:103DE0007060B268904200D2B060706901430020F8
:103DF000C4E90001F068401CF06001F02DFC780778
:103E000007D0502080F31188BFF34F8FBFF36F8F1F
:103E1000FEE73846BDE8F0816000002010B5031FC2
:103E20004FF080741C601B1F21F001011960191FE5
:103E3000024B0B60143940380A6010BD193D000870
:103E40002DE9F8430446024652486946B0EB420F5A
:103E500009D94FF0E640B0EB420F94BF00204FF07D
:103E6000FF30009030E04C4B22F00040834271D98B
:103E70004A49204602F0BAF802F084F9804602F07E
:103E80006DF800F0030000904549404602F0AEF89E
:103E900005464449404602F0A9F8064642494046D4
:103EA00002F0A4F807464149404602F09FF8214637
:103EB00002F098F9394602F09FF9314602F09CF978
:103EC000294602F099F904462546009C002C45DB62
:103ED000294614F0010F08461ED002F087F8054667
:103EE000334902F083F8334901F00EFF294602F00E
:103EF0007DF8314901F008FF294602F077F84FF0CC
:103F00007E5101F001FF14F0020F08BFBDE8F883F5
:103F100080F00040BDE8F88302F068F806462749C3
:103F200002F064F8264902F05DF9314602F05EF8CD
:103F3000244901F0E9FE314602F058F8294602F022
:103F400055F8294601F0E0FE14F0020FE0D1BDE87B
:103F5000F883FFE71046FFF781FAB4E76800B0F195
:103F60007F4F09D22846FFF74AFA042808BFFFF717
:103F700070FA2846BDE8F88306D10120FCF7EEFA76
:103F8000BDE8F843FFF761BA2846BDE8F843FFF7FC
:103F900059BA0000B61F927E490E494683F9223F66
:103FA0001A61342C0020A23300A0FD390000C93F63
:103FB000B93AB2BACA9F2A3DDDFFFFBE336D4C3914
:103FC000DA82083CA0AA2ABE70B51B4C0023CAB1F5
:103FD0004FF47A7234F813500544ADB224F81350FC
:103FE000954201D924F8132004EB43056E890E4451
:103FF000B6B26E81964200D96A815B1CDBB2052B9A
:10400000E8D370BD5FF0640534F81320121A92B241
:1040100024F81320642A01D224F8135004EB43023D
:104020005689761AB6B25681642E00D255815B1C31
:10403000DBB2052BE8D370BDA822002010B5064BDB
:10404000002200BF23F8120003EB4204521CD2B23C
:104050006181052AF6D310BDA8220020014901F094
:10406000C5BF0000A7E78E3C2DE9FF4F85B0804615
:104070001C460E46129800F04EFB0746204600F004
:104080004AFB00EBC00080004FF4B471B0FBF1F4C8
:1040900007EBC7008000B0FBF1F5284601F092FF66
:1040A0008146384601F08EFF4946039001F094FEA8
:1040B00083464DE0204601F085FF594601F096FF0A
:1040C000FFF7CCFF0746079801F07CFF8246D146F8
:1040D0003846FFF7B5FE494601F088FF01F03EFF84
:1040E0004044C0B202903846FFF77CFA494601F0DE
:1040F0007DFF01F033FF3044C0B2641C0190AC423C
:1041000006D0204601F05EFF594601F06FFF00E047
:104110000398FFF7A3FF0746D146FFF791FE4946F4
:1041200001F064FF01F01AFF404400F0FF09384637
:10413000FFF758FA514601F059FF01F00FFF3044E4
:10414000C3B213980090DDE901104A4600F0A4FACA
:10415000AC42AFD309B0BDE8F08F2DE9FF4F8DB071
:104160000746DDE91A084FF0000B1C460E46DA46FA
:1041700000F0D1FA8146204600F0CDFA00EBC000F5
:1041800080004FF4B471B0FBF1F409EBC90080007A
:10419000B0FBF1F5284601F015FF0090484601F00C
:1041A00011FF0B90009901F017FE0190204601F0DD
:1041B00009FF019901F01AFFFFF750FF81460F98A0
:1041C00001F000FF0A9007904846FFF739FE079973
:1041D00001F00CFF01F0C2FE3844C0B209900A9809
:1041E00006904846FFF7FEF9069901F0FFFE01F040
:1041F000B5FE3044C0B2089050E0204601F0E2FE27
:10420000019901F0F3FEFFF729FF8146DDF828A0B0
:10421000FFF716FE514601F0E9FE01F09FFE38441B
:10422000C0B207904846DDF828A0FFF7DBF95146F9
:1042300001F0DCFE01F092FE3044C0B2641C069036
:10424000AC4206D0204601F0BDFE019901F0CEFE41
:1042500000E00B98FFF702FF8146DDF828A0FFF78A
:10426000EFFD514601F0C2FE01F078FE384400F047
:10427000FF0B4846DDF828A0FFF7B4F9514601F0DE
:10428000B5FE01F06BFE304400F0FF0ADDE90610D8
:1042900053465A46CDF8008000F0FEF9AC42ACD34C
:1042A000DDE9083231463846CDF8008000F0F4F9F7
:1042B00053465A4631463846CDF8008000F0ECF9B6
:1042C00011B0BDE8F08F2DE9FF4FD81D4FEAD0099E
:1042D00000980026DDF834A01F468846802827D2A3
:1042E000B8F1400F24D2002520E0002405FB09FB93
:1042F00014E0600702D07006060E04E0029901EB9C
:10430000D4011BF80160300606D5009841462044D0
:10431000C0B20E9A00F056F8641CE4B2BC42E8D376
:104320006D1C08F10100EDB200F0FF085545DCD32B
:10433000BDE8FF8F2DE9FF4F804655420220002641
:104340000F4600EB4504B8F1800F39D2402F37D229
:1043500007EB0609A8EB050B09F0FF010BF0FF00C6
:10436000039A00F02FF808EB050A09F0FF010AF0A4
:10437000FF00039A00F026F8A7EB060909F0FF01F9
:104380000AF0FF00039A00F01DF809F0FF010BF09E
:10439000FF00039A00F016F82046B44208DC761CB1
:1043A00000EB4604641CF54202D1A84200DC002068
:1043B000A84203DD6D1C04EB4504641C002DC7DD21
:1043C000BDE8FF8F30B580280ED240290CD20124E1
:1043D00001F00705AC40064BC90800EBC110012AEB
:1043E000195C02D0A143195430BD2143FBE7000002
:1043F000A81E00202DE9F8419846079C17460E4656
:1044000005460B46009400F047F93A4643463146CC
:104410001046009400F040F943462A4619463846B3
:10442000009400F039F92A4633464146104600947C
:1044300000F032F9BDE8F88128B1FF224FF4806125
:104440000248FCF754B80022F8E70000A81E00203C
:104450002DE9FF4F82465442022082B0002500EB36
:10446000440089460090BAF1800F35D2B9F1400F6F
:1044700032D200BF09EB0500C7B2AAEB04000AEB79
:104480000408A9EB050B01900DE00198C6B206E007
:1044900039463046059AFFF795FF761EF6B2B045CD
:1044A000F6DD7F1EFFB2BB45EFDD0098A84209DCB8
:1044B0006D1C00EB4501491C0091EC4202D1A04269
:1044C00000DC0020A04205DD0098641C00EB4400E5
:1044D000401C0090002CCDDD06B0BDE8F08F2DE92A
:1044E000F0439042DDF81C9001D8044600E01446E9
:1044F000A04600D810460646994201D80C4600E076
:104500001C4600D819460F460EE0454606E04A46CE
:1045100021462846FFF756FF6D1CEDB2B54201D883
:10452000802DF4D3641CE4B2BC4201D8402CECD3FF
:10453000BDE8F08310B500F015F96420FCF7E0FA4F
:10454000002000F03BF9202000F0D0FC002000F01B
:10455000CDFCB02000F0CAFCC82000F0C7FC002051
:1045600000F0C4FC102000F0C1FC402000F0BEFCB4
:10457000FF2000F013F9A12000F0B8FCA62000F005
:10458000B5FCA82000F0B2FC3F2000F0AFFCA42056
:1045900000F0ACFCD32000F0A9FC002000F0A6FC49
:1045A000D52000F0A3FCF02000F0A0FCD92000F002
:1045B0009DFC222000F09AFCDA2000F097FC1220EB
:1045C00000F094FCDB2000F091FC202000F08EFC39
:1045D0008D2000F08BFC142000F088FC012000F0FE
:1045E000EDF80020FFF728FF00F00EFC0348002143
:1045F000018041800121017110BD00009200002066
:10460000F0B5802A05D2402B03D2904201D89942BE
:1046100001D90120F0BDCE0801F00701FF2505FA00
:1046200001F403F00701C1F10701CD401949DF088A
:10463000B6EBD30F1CD11EE000EBC61311F803C07C
:104640008CEA040C01F803C000EBC71C06E000BFB5
:1046500011F803E06FEA0E0E01F803E080339C4589
:10466000F6D811F803C0401C8CEA050C01F803C011
:104670009042E1D90BE02C4000EBC61002EBC712D0
:1046800003E00B5C63400B54401C8242F9D20020D3
:10469000F0BD0000A81E00202DE9FC4F07469A46F9
:1046A00090460E46D41B00D56442BAEB060000D5F6
:1046B000404281464FF0FF30474501D2012100E0E2
:1046C000014601915146564500D201208346A4EB94
:1046D000090540460B9AFFF775FEC9F100000090EE
:1046E00013E0314638460B9AFFF76CFE00996800DC
:1046F000884204DD0199A5EB09053944CFB2A042F7
:1047000003DA06EB0B002544C6B24745E9D156450E
:10471000E7D1BDE8FC8F4FF4B471884206D9B0FBF5
:10472000F1F201FB1200002800D10846704700009A
:10473000F8B517460E46050012D001240EE000BF62
:1047400005EB44000097437810F8011C15F814207D
:1047500010F8020CFFF7A0FF641CA4B2B442EFD320
:10476000F8BD000070B50C4C012291022046FCF708
:10477000D6FAA515002229462046FCF7D0FA0A20D1
:10478000FCF7BEF9012229462046FCF7C8FABDE82D
:1047900070400A20FCF7B4B90008014010B5044687
:1047A000812000F0A3FB2046BDE8104000F09EBB36
:1047B000014A10805180704792000020044910B1D6
:1047C000AF20012201E0AE2000224A7100F08EBB32
:1047D0009200002010B5FFF7ADFE00F0F7F840F6AC
:1047E000B8342046FCF78CF900F060F800F082F94C
:1047F0002046FCF785F900F0D3F92046FCF780F954
:1048000000F002FA2046FCF77BF90020FFF714FEC7
:1048100000F060FA00F03AFA2046FCF771F9002047
:10482000FFF70AFE00F070FA2046FCF769F9002055
:10483000FFF702FE00F08CFA2046FCF761F9002039
:10484000FFF7FAFD00F036FA2046FCF759F9002090
:10485000FFF7F2FD00F012F82046FCF751F90020B6
:10486000FFF7EAFD00F054F82046FCF749F900F0A4
:1048700073F82046BDE81040FCF742B97CB51E2213
:1048800001254FF48774142311461046CDE90045E5
:10489000FFF7EAFB1E230A2237215020CDE900450D
:1048A000FFF75BFCBDE87C4000F0AEBA70B50020BD
:1048B000FFF7C2FD00252C46002221462846FFF7BF
:1048C00081FD1CB97F2D01D26D1C09E07F2D03D124
:1048D0003F2C01D2641C06E03F2C03D115B16D1EA4
:1048E000EDB201E0641EE4B2012221462846FFF742
:1048F00069FD00F089FA0520FCF702F955EA040089
:10490000DAD1BDE870404FF47A70FCF7F9B80000D6
:1049100070B500245FF01E0504EB840005EB8000F9
:10492000C0B201230A220F21FFF704FD641C052CED
:10493000F2D30024C4EBC40000EB04100F30C0B26B
:1049400001230A222821FFF783FD641C052CF1D3E3
:10495000BDE8704000F058BA7CB50120FFF76CFD4F
:10496000002540248023174A29462846CDE90045E2
:10497000FFF7A9FC00F048FA40F6B8363046FCF7DD
:10498000BFF80020FFF758FD0120CDE9004040238B
:104990000D4A00212020FFF796FC00F035FA304642
:1049A000FCF7AEF80120FFF747FD4023064A00213F
:1049B0002020CDE90045FFF786FCBDE87C4000F0F3
:1049C00023BA000018B0000818B400082DE9F04719
:1049D00094B00120FFF730FDFCF7A6F938A2064697
:1049E00007CA01AB002583E8070029460220FFF72C
:1049F000DFFE364F0024009497E80E0034A000F04C
:104A0000B9FA24210220FFF7D3FE009497E80E00A4
:104A100032A000F0AFFA0DF1040AB84641F288392D
:104A200012210220FFF7C4FE0094D8E9012301A857
:104A3000D8F8001000F09EFA00F0E6F99DF8047036
:104A40000A220AF1010101A8FBF7DDFC8DF80E70C6
:104A50006D1CFCF769F9811B074648464945DFD3C1
:104A6000FCF74EF8B81B01F012F800221E4B00F0C4
:104A700087FE07460E46284601F08CFA01F018F929
:104A80003A46334600F07CFE00F0D2FF034617A200
:104A9000402104A8FBF7E8FB0120FFF7CDFC022131
:104AA0000846FFF785FE0094D8E9012304A8D8F84A
:104AB000001000F05FFA00F0A7F914B0BDE8F0872D
:104AC0004142434445464748494A4B00E8AF000845
:104AD00054657374696E672E2E2E000030313233A8
:104AE000343536373839410000408F407E25642008
:104AF0004650530038B500242046FFF79DFC214660
:104B00000220FFF755FE16480124009490E80E009D
:104B100014A000F02FFA1A210220FFF749FE1448D2
:104B2000009490E80E0013A000F024FA2C2102203B
:104B3000FFF73EFE1248009490E80E0011A000F02E
:104B400019FA36210220FFF733FE1148009490E84D
:104B50000E0010A000F00EFABDE8384000F054B985
:104B6000F4AF0008466F6E7420313678323600009C
:104B7000E8AF0008466F6E7420313178313800009C
:104B8000DCAF0008466F6E742037783130000000CB
:104B9000D0AF0008466F6E742036783800000000F1
:104BA00038B50020FFF748FC04210020FFF700FE85
:104BB0000E4D0124009495E80E000DA000F0DAF9E6
:104BC00024210020FFF7F4FD009495E80E000BA0CF
:104BD00000F0D0F960203C2170223E230094FFF7C2
:104BE0007EFCBDE8384000F00FB9000000B00008BE
:104BF00031382E3039322E35000000005249542B06
:104C0000313030300000000038B50020FFF714FCD0
:104C100004210846FFF7CCFD0F4D0124009495E8D0
:104C20000E000EA000F0A6F918210420FFF7C0FD29
:104C3000009495E80E000DA000F09CF92C210420B2
:104C4000FFF7B6FD009495E80E000CA000F092F975
:104C5000BDE8384000F0D8B80CB0000850726F7052
:104C60006F7274696F6E616C000000007465787417
:104C70002E2E2E205377656574210000332E31349B
:104C80003135202030343A323000000038B501246C
:104C90003F237F22214620460094FFF7FDFC01229E
:104CA0003F2311467F200094FFF7F6FCBDE8384013
:104CB00000F0AAB81FB5064B0FCB8DE80F000122FC
:104CC00007216846FFF734FD00F09EF81FBD000085
:104CD00018B6000838B500240125604200EB8000BA
:104CE00000F13F017F30C2B204EB8400CBB2401C24
:104CF000C1B2C0B20095FFF77DFB641C052CECD35C
:104D0000BDE8384000F080B838B5012423234122A3
:104D100021461F200094FFF7E2FB3C2346222D2171
:104D20000A200094FFF7DBFB2D2364220A214B208D
:104D30000094FFF7D4FB00203723009050221E215F
:104D40001846FFF7CCFBBDE8384000F05DB8000026
:104D500038B500210220FFF72BFD254D01240094DA
:104D600095E80E0023A000F005F914210220FFF7BA
:104D70001FFD009495E80E0020A000F0FBF828210C
:104D80000220FFF715FD009495E80E001CA000F02E
:104D9000F1F800214220FFF70BFD009495E80E008A
:104DA00017A000F0E7F814214220FFF701FD00945E
:104DB00095E80E0011A000F0DDF828214220FFF751
:104DC000F7FC009495E80E000AA000F0D3F83F230A
:104DD00000211A460846FFF713FC3C237D223A21A6
:104DE0000220FFF70DFCBDE8384000F00DB80000D0
:104DF000E8AF0008426C61636B0000006F6E00005A
:104E0000576869746500000070B50C4D002400BF40
:104E100004F1B000C0B200F069F8002000F066F8BC
:104E2000102000F063F805EBC410802100F07EF83C
:104E3000641CE4B2082CEBD370BD0000A81E002057
:104E40002DE9FF4F9B460098A0F12008B8F15F0FB5
:104E50000CD22548CEB202883244802A06D8824637
:104E60004088C1F307273844402803D9002004B004
:104E7000BDE8F08F002527E008FB075102980024C9
:104E800030F811901DE000BF09FA04F0000409D5C4
:104E90009AF802109AF8000029442044C9B2C0B21E
:104EA0000D9A0BE00D98E8B15FF000029AF802103D
:104EB0009AF8000029442044C9B2C0B2FFF782FA30
:104EC000641CA642E0D86D1CAF42D5D8BAF80030B9
:104ED000BBF1000F01D01BF808609919AAF8001067
:104EE0000098C4E70122E1E79200002031B50D4DA2
:104EF0004FF48064002221462846FBF710FF002271
:104F000061102846FBF70BFF4FF0FF330122694683
:104F10000548FCF7E9FA012221462846FBF7FFFE87
:104F200038BD000000080140F40200202DE9F041E6
:104F30000E4F0C4605464FF4806600223146384637
:104F4000FBF7EDFE012251023846FBF7E8FEA2B264
:104F50004FF0FF3329460648FCF7C6FA314638467B
:104F6000BDE8F0410122FBF7DABE00000008014075
:104F7000F40200202DE9F8410E46174698460446F3
:104F8000079D0CE043463A4631460095FFF758FF2F
:104F90002178884202D0C8B2BDE8F881641C20782C
:104FA0000028EFD1C0B2F7E710B50446002000F0AA
:104FB000D7F92046BDE8104000F004BA10B5022031
:104FC00000F0CEF9BDE81040012000F0FBB910B5AB
:104FD00000F0C6F9BDE81040002000F0F3B910B5AC
:104FE000012000F0BDF9BDE81040022000F0EAB950
:104FF000D0E9013201699A60D0E901235A604A6818
:10500000824201D182684A60002202610868401E23
:105010000860086870470000034B036003F1540008
:105020000860802010607047A000002000F1080197
:105030004FF0FF32C0E90112C1600161002101603F
:10504000704700210161704730B50B685A1C02D0CF
:1050500000F1080202E0026904E022465468256873
:105060009D42FAD953684B6099608A60516008612B
:105070000168491C016030BD42684A6093688B60DA
:1050800093685960916008610168491C016070472C
:10509000502080F31188BFF34F8FBFF36F8F0A4901
:1050A0004868401C486001280CD10848006810F08E
:1050B000FF0F07D0502080F31188BFF34F8FBFF34D
:1050C0006F8FFEE7704700008000002004ED00E0D5
:1050D0000849486828B1401E486001D180F3118812
:1050E0007047502080F31188BFF34F8FBFF36F8F4D
:1050F000FEE700008000002070B500282AD0164D81
:10510000A0F1080460686969084207D1502080F363
:105110001188BFF34F8FBFF36F8FFEE722683AB15C
:10512000502080F31188BFF34F8FBFF36F8FFEE7DE
:105130008843606000F0DEF8606869680844686071
:105140002046FEF7B3FD2869401C2861BDE8704089
:1051500000F082BA70BD0000600000204FF0E02037
:1051600000210161816105494FF47A720968B1FB40
:10517000F2F1491E416107210161704720000020C2
:1051800010B5020014D00F48006B38B1502080F3E6
:105190001188BFF34F8FBFF36F8FFEE700F0AAF8BF
:1051A00000211046FEF726FC00F056FA002807D131
:1051B00005494FF080500860BFF34F8FBFF36F8FEA
:1051C00010BD00002400002004ED00E010B586B002
:1051D0000024039405AA04A903A80494FFF71CFF64
:1051E000DDE903010094CDE9011000230EA1104870
:1051F000059A00F0A0F90F490028C86211D050208C
:1052000080F31188BFF34F8FBFF36F8F4FF0FF30E4
:10521000886201204861CC6006B0BDE8104000F013
:1052200009B906B010BD000049444C45000000001B
:10523000B53B00082400002070B50446FFF728FFA6
:10524000294D04B92C68201DFFF7D2FE58B9E06A39
:10525000264A00EB800152F8211021B9012181403A
:10526000286988432861A06A18B104F11800FFF783
:10527000BFFE1E48211DDC30FFF7FEFE94F85000F3
:105280000026012801D184F85060FFF721FF6869EA
:1052900028B1FFF7FDFEFEF72FFDFFF719FF286885
:1052A000844213D1686990B1286B38B1502080F3E3
:1052B0001188BFF34F8FBFF36F8FFEE70C494FF09C
:1052C00080500860BFF34F8FBFF36F8F70BD0748EA
:1052D000DC300068A968884201D12E6070BDBDE84D
:1052E000704000F00FB80000240000207C05002072
:1052F00004ED00E00248016B491C016370470000A7
:10530000240000201448016B11B10121C1617047D4
:105310000021C1610169B1FA81F1C1F11F0101EB05
:1053200081020E4951F822306BB101EB820101F18B
:1053300008034A6852684A609A4201D152684A603A
:10534000D16801607047502080F31188BFF34F8F00
:10535000BFF36F8FFEE70000240000207C050020D3
:1053600010B50F4C02280ED0A0B1012816D1012291
:1053700020212046FBF7D3FC00222046BDE8104048
:105380001021FBF7CCBC002220212046FBF7C7FCF4
:105390000122F2E7BDE8104000F004B810BD0000A3
:1053A000000C014010B5064C002220212046FBF7DE
:1053B000B6FC20460022BDE810401021FBF7AFBC30
:1053C000000C014070B5104B104D4FF40044022802
:1053D0000ED0A0B1012816D1012208211846FBF7F2
:1053E0009EFC002221462846BDE87040FBF797BC92
:1053F000002208211846FBF792FC0122F2E7BDE8E3
:10540000704000F005B870BD000C0140000801407C
:1054100010B5002208210548FBF781FCBDE81040CB
:1054200000224FF400410248FBF779BC000C014018
:10543000000801401CB5264908780190FF2008703B
:1054400008788DF800009DF800009DF8002000F01D
:10545000F000904207D0502080F31188BFF34F8FA7
:10546000BFF36F8FFEE79DF800001A4C00F050006C
:1054700020700720A06005E09DF8002052008DF804
:105480000020401E9DF800201206F5D4A0600328DD
:1054900007D0502080F31188BFF34F8FBFF36F8F79
:1054A000FEE74FF44070A060019808700A48016858
:1054B00041F470010160016841F070410160FFF743
:1054C0004DFE00206060FAF775FE00201CBD000054
:1054D00000E400E08000002020ED00E02DE9FF5F07
:1054E0008346DDE90E87994616468A469000FEF708
:1054F00027FC05001CD05420FEF722FC040014D029
:105500000020256384F85100CDE90240CDE90087F1
:105510004B46324651465846FEF77CFB2046FEF786
:10552000A1FA012004B0BDE8F09F2846FFF7E4FD92
:105530004FF0FF30F6E7F0B585B0DDE90B640A9D6A
:10554000A6B1DCB1542700972663022684F8516087
:10555000002604AFCDE90246CDE90057FEF75AFB1D
:105560002046FEF77FFA049805B0F0BD502080F386
:105570001188BFF34F8FBFF36F8FFEE7502080F38A
:105580001188BFF34F8FBFF36F8FFEE72DE9F04116
:105590002F4C0026206B28B1A069401CA06130462A
:1055A000BDE8F081E5686D1CE56013D1606B0068B3
:1055B00038B1502080F31188BFF34F8FBFF36F8F46
:1055C000FEE7606BA16B6163A063206A401C2062F0
:1055D000FEF792FBA06ADFF87C80854209D3606BFE
:1055E0000068A0B1606BC068C7687868854211D256
:1055F000A0622068C06A00EB800158F821000128F1
:1056000000D90126E0690028C9D00126C7E74FF07C
:10561000FF30EDE7381DFFF7EBFCB86A18B107F172
:105620001800FFF7E5FCF96A012022698840104361
:10563000206101EB810108EB8100391DFFF71CFDA2
:10564000F86A2168C96A8842C9D30126C7E7000001
:10565000240000207C0500202DE9F0472C4D00247B
:105660002746286B38B1FFF713FD286B401E2863CF
:10567000286B40B146E0502080F31188BFF34F8F74
:10568000BFF36F8FFEE7A968224E0120D1B3A6F1C8
:10569000B40980463068E8B1F068C46804F11800C5
:1056A000FFF7A6FC201DFFF7A3FCE06A2A6908FAB1
:1056B00000F11143296100EB800109EB8100211DFC
:1056C000FFF7DAFCE06A2968C96A8842E2D3C5F8C4
:1056D0001C80DFE70CB1FEF70FFBAC6944B1464616
:1056E000FFF754FF00B1EE61641EF9D10020A861FC
:1056F000E86938B10849012738070860BFF34F8FC0
:10570000BFF36F8FFFF7E4FC3846BDE8F087000079
:10571000240000203006002004ED00E021F00042CB
:10572000A2F16052B2F5801F01F0004328BFD2F110
:105730007F6C0BD95FEA001C43EAC20242EB507057
:1057400018BF704728BF20F001007047B2F5801FD6
:10575000BCBF184670474FEA410C1CF5001F02D22F
:10576000084600F00ABD70B500F04EFA000000894E
:10577000FFF7F6BF4FF00040A0F580007047000033
:105780002DE9C04130B4DFF8A0C23CEA111418BFC3
:105790003CEA131400F0EC8081EA03051CEA1114C2
:1057A00044EAD57418BF1CEA131500F0C780A4EBB7
:1057B00005044FF0004545EAC12145EAC32341EA0B
:1057C000505143EA525304F17F74994204F5003476
:1057D0004FEAC0204FEAC22208BF904200F09C80EE
:1057E0004FEA13650FF24016765D4FEA134506FB4C
:1057F00005F7C7F1807706FB07F74FEAD737A7FB16
:1058000003687642C8F58038A7FB06CE38BFA8F1FA
:10581000010807FB08E64FF0000EA6FB028CE6FB32
:1058200003CEDCF1000CCEF1004E38BFAEF1010E1C
:10583000A6FB0C584FF000074FF00005E6FB0E8763
:10584000A1FB08C6A0FB07CE16EB0E0645F100052E
:10585000E1FB076515F1E04E7EBFA4F580345FEAF9
:1058600046066D4116F1800745F100054FEA1727FE
:105870004FEA066647EA0567A6F1DE46B6F1805FA5
:105880004FEA15251FD9384624F0010C05EBC471E9
:10589000BCF1FE6F01EB0C1102D8F0BCBDE8008139
:1058A00024425CBF01F5801E9EEAC47F02D4F0BC96
:1058B000BDE80081244238D4F0BCA1F1C041BDE86C
:1058C000004100F0EFB94FEAD22242EA43524FEAD8
:1058D000D323A7FB02864FEAD02040EA415007FBC2
:1058E00003661EEA0E0F4FEAD12105FB026658BF80
:1058F000A6EB0056B6EB00564FEA520E4EEAC37EB8
:1059000018EB0E0E56EB530EBDD518EB02085E4198
:105910007F1C55F10005B6E74FF480154FF00007E6
:105920004FF000064FF00008ADE7F0BC4FF000006C
:1059300001F1C04101F00041BDE8008111EA0C1FF6
:105940000CEA131500D00CE013EA0C1F00F02580C0
:105950004FF00000F0BC81EA030101F00041BDE816
:105960000081F0BCBDE8004181EA030100F09AB972
:10597000F0BCBDE8004170B500F046F9097EFC3E80
:1059800000F007B881EA03014FF0000001F0004188
:10599000704781EA030100F085B9F0BCBDE8004121
:1059A0004FF0000021497047FFFDFBF9F7F5F4F2D5
:1059B000F0EEEDEBE9E8E6E4E3E1E0DEDDDBDAD8AA
:1059C000D7D5D4D3D1D0CFCDCCCBCAC8C7C6C5C408
:1059D000C2C1C0BFBEBDBCBBBAB9B8B7B6B5B4B31F
:1059E000B2B1B0AFAEADACABAAA9A8A8A7A6A5A40A
:1059F000A3A3A2A1A09F9F9E9D9C9C9B9A999998CE
:105A00009797969595949393929191908F8F8E8E70
:105A10008D8C8C8B8B8A89898888878786858584FD
:105A200084838382828181800000FF070000F87FE9
:105A30004FEA41034FEA5353A3F58063D3F11E03AA
:105A4000C8BFD3F1210C0CDD4FF0004242EAC12265
:105A500042EA505232FA03FC8CEAE17CACEBE17092
:105A60007047102BC4BF0020704703F5787CBCF151
:105A7000FF3F04D06FF0004282EA2100704770B50A
:105A800000F0C2F84992248000207047F2E7B0FA93
:105A900080F310FA03F10AD0C3F11D0303F580630C
:105AA0004FEA41504FEA035202EBD12170474FF0C9
:105AB00000007047DFF848C170B51CEA111E1EBF18
:105AC0001CEA13159EEA0C0F95EA0C0F00F06F808C
:105AD00081EA030423EA4C134EEAD47E21EA4C11F6
